:100C8C00050A000000000005110000000000051816
:100C9C0000000000000110000116000117000108FF
:0A0CAC0000010901011D01010F0103
:100BF700E4FF1209F6EF7003750A017F011209F687
:100C0700EF60087F021209F6EF7003750B017F038F
:100C17001209F6EF60087F041209F6EF7003750CEE
:100C2700017F051209F6EF60087F061209F6EF70DB
:100C370003750D017F071209F6EF7003750E012288
:10080000E4F51EF51F75FFDE75FFADD2AF75B214AE
:10081000F5E1F5E275E340FF120D237F01120D2390
:100820007F02120D23120B8E120DAB120DC1E4FFCD
:10083000120D6953A6EF53A6DF53A0EF53A0DF12AA
:100840000DB8120BF7E4F51F740A251FF8E6604A8D
:10085000E51FD395084043751D01E50F6401703A0B
:10086000E50964026006E5096401702E750901431B
:10087000A0207F01120B250508E508B51F1CE4F533
:100880001DF50F53A0DF7FD07E07120D87740A2558
:100890001FF8E4F6750902751D01051FE51FC394D5
:1008A0000540A5E4F517E517C394055095740A258E
:1008B00017F8E66047E517C395085040751D01E538
:1008C0000F64017037E50964026004E509702DE4E6
:1008D000F50943A020FF120B251508E508B5171CE4
:1008E000E4F51DF50F53A0DF7FD07E07120D87744E
:1008F0000A2517F8E4F6750902751D01051780A68B
:090CB6000133000131000132009C
:100D2300EF1460101460162402701AE5A754FE44F1
:100D330001F5A722E5A754FB4404F5A722E5A75430
:060D4300F74408F5A722A9
:090DB800D2A8D288D2AAD28A2264
:03000300020CC725
:100CC700C0E0C0D0E532B4010715337532008003A8
:100CD700753101E533D39402400543A010800AE53E
:0E0CE70033C39403500353A0EFD0D0D0E032BB
:03001300020CF5E7
:100CF500C0E0C0D0E531B40107053375310080038C
:100D0500753201E533D39402400543A010800AE50E
:0E0D150033C39403500353A0EFD0D0D0E0328C
:0F0D9C003F065B4F666D7D077F67000C04020109
:070CBF0001340002350000C2
:100D4900E4FDFCC3ED9FEC9E5015E4FBFA0BBB00E0
:0F0D5900010AEB64784A70F50DBD00010C80E4CF
:010D68002268
:040DC100E4F5A5228E
:020D69008F26D3
:100D6B0078277C007D007BFF7A0D799C7E007F0AC3
:0B0D7B001209D074272526F8E6F59039
:010D8600224A
:0D0DAB0053A6FE53A6FD53A6FB53A6F72248
:020B25008F201F
:100B270078217C007D007BFF7A0D79A67E007F050A
:100B37001209D0E520601F14704C74222534F8E6A2
:100B4700FFE5A054F04FF5A00534E534D3940440F5
:100B5700297534048024E534B4010575A009800E95
:100B670074202534F8E6FFE5A054F04FF5A01534BE
:100B7700E534C394005003E4F534AF34120D697FB4
:060B8700F47E01120D498D
:010B8D002245
:100D87008E358F36758901758A30758CF8D2A943EF
:050D97008E08D28C2241
:03000B00020C479D
:100C4700C0E0C0D075D000C006C007E536153670C5
:100C5700021535758A30758CF8E5364535701DE512
:100C670033C39403500FE5B030E00A750F0143A07A
:100C770020C28C80077FE87E03120D87D007D0063D
:050C8700D0D0D0E032E6
:100B8E00E5A4547F4480F5A4E5A454BF4440F5A4E5
:100B9E00E5A454DF4420F5A4E5A454EF4410F5A4D5
:100BAE00E5A454F74408F5A4E5A454FB4404F5A4C5
:100BBE00E5A454FD4402F5A4E5A454FE4401F5A4B5
:100BCE00E5A7547F4480F5A7E5A754BF4440F5A799
:100BDE00E5A754DF4420F5A7E5A754EF4410F5A789
:090BEE00E5A754FD4402F5A7221D
:1009F600E4FEEFB40E004003020A96900A08F828B7
:100A06002873020A32020A36020A3A020A3E020A29
:100A160042020A4E020A59020A5D020A61020A6E7F
:100A2600020A7A020A85020A8F020A8FE580802D61
:100A3600E5808036E580803EE5808045E580540887
:100A4600131313541FFE8048E58054041313543FB8
:100A5600FE803DE5808034E5808008E5B05480C4A2
:100A66001313135401FE8028E5B05440C4131354E5
:100A760003FE801CE5B05420C4135407FE8011E524
:100A8600B05410C4540FFE8007E5B05402C313FEE1
:020A9600AF06A9
:010A9800223B
:03000000020A9958
:0C0A9900787FE4F6D8FD758136020AE093
:10090000E709F608DFFA8046E709F208DFFA803ED9
:1009100088828C83E709F0A3DFFA8032E309F608C6
:10092000DFFA8078E309F208DFFA807088828C832E
:10093000E309F0A3DFFA806489828A83E0A3F608E2
:10094000DFFA805889828A83E0A3F208DFFA804CBC
:1009500080D280FA80C680D4806980F28033801093
:1009600080A680EA809A80A880DA80E280CA8033FC
:1009700089828A83ECFAE493A3C8C582C8CCC58374
:10098000CCF0A3C8C582C8CCC583CCDFE9DEE78044
:100990000D89828A83E493A3F608DFF9ECFAA9F0C3
:1009A000EDFB2289828A83ECFAE0A3C8C582C8CC19
:1009B000C583CCF0A3C8C582C8CCC583CCDFEADE32
:1009C000E880DB89828A83E493A3F208DFF980CC94
:1009D00088F0EF60010E4E60C388F0ED2402B4048D
:1009E0000050B9F582EB2402B4040050AF23234534
:0609F00082239009507300
:100AA500020800E493A3F8E493A34003F68001F25F
:100AB50008DFF48029E493A3F85407240CC8C33352
:100AC500C4540F4420C8834004F456800146F6DF21
:100AD500E4800B0102040810204080900C8CE47E19
:100AE500019360BCA3FF543F30E509541FFEE49316
:100AF500A360010ECF54C025E060A840B8E493A3DD
:100B0500FAE493A3F8E493A3C8C582C8CAC583CA07
:100B1500F0A3C8C582C8CAC583CADFE9DEE780BEBF
:010CC600002D
:00000001FF
